:020000040800F2
:10000000B0040020010100081D2000081519000897
:1000100019200008610300083120000800000000DA
:100020000000000000000000000000002520000883
:1000300065030008000000002120000829200008B6
:100040001B0100081B0100081B0100081B01000820
:100050001B0100081B0100081B0100081B01000810
:100060001B0100081B0100081B0100081B01000800
:100070001B0100081B0100081B0100081B010008F0
:100080001B0100081B0100081B0100081B010008E0
:100090001B0100081B0100081B0100081B010008D0
:1000A0001B0100081B0100081B0100081B010008C0
:1000B0001B0100081B0100081B0100081B010008B0
:1000C0001B0100081B0100081B0100081B010008A0
:1000D0001B0100081B0100081B0100081B01000890
:1000E0001B0100081B0100081B010008DFF80CD0F1
:1000F00000F096F80048004755200008B0040020A2
:100100000648804706480047FEE7FEE7FEE7FEE7B1
:10011000FEE7FEE7FEE7FEE7FEE7FEE72D2000082C
:10012000ED00000880EA010210B502F00043400033
:1001300022D04A001FD0010E01EB1261C0F356001D
:10014000C2F3560240F4000042F40002A0FB022079
:1001500000047F39140400D0401C50EA124001D43E
:100160004000491EC2B20C0604EBD010401C4008EF
:10017000802A02D003E0002010BD20F001000029F9
:1001800000DA0020184310BD002801DBC0F1004058
:10019000002901DBC1F10041814201D201207047F9
:1001A00000207047002801DBC0F10040002901DB7E
:1001B000C1F10041814201D9012070470020704700
:1001C00000F0004220F00040C10DC0F3160040F4E2
:1001D00000007F2901DA00207047962903DCC1F175
:1001E0009601C84001E096398840002AF4D0404288
:1001F000704730B50B46014600202022012409E05B
:1002000021FA02F59D4205D303FA02F5491B04FACF
:1002100002F52844151EA2F10102F1DC30BD0000F8
:100220001CB509480090094801900546009C06E06D
:10023000E06840F0010394E8070098471034AC42AE
:10024000F6D3FFF757FF0000782300089823000833
:1002500080B582B000208DF8070040F210004FF00A
:10026000FF3CC2F200000DF107025E210123CDF830
:1002700000C000F041FC02B080BD0000B0B582B00B
:1002800004460520ADF8060040F210004FF0FF359F
:10029000C2F200000DF106025E210223009500F07B
:1002A0002BFC08B102B0B0BD40F21000C2F2000059
:1002B00001AA5E210223009500F01CFA0028F1D16A
:1002C0009DF80410217002B0B0BD000080B582B06E
:1002D00001208DF8070040F210004FF0FF3CC2F201
:1002E00000000DF107025E210123CDF800C000F0EF
:1002F00003FC02B080BD000080B582B002218DF801
:10030000070040F210008DF806104FF0FF3CC2F2DB
:1003100000000DF106025E210223CDF800C000F0BE
:10032000EBFB02B080BD0000012884BF01207047B4
:1003300080B582B003218DF8070040F210008DF8DF
:1003400006104FF0FF3CC2F200000DF106025E21E4
:100350000223CDF800C000F0CFFB02B080BD00004A
:10036000FEE7000070470000EFF3108072B600BF98
:10037000FEE700002DE9F04F82B00E68002E00F07D
:10038000FD8041F20042C4F20102042340F2004E1B
:10039000904208BF03234FF6FF7CC4F2010E009386
:1003A00000240123C1F2100C4FF0000A4FF00009A5
:1003B0004BE000BF41F20002C4F20102009F9042F4
:1003C00008BF022704F00C030F229A402BEA020216
:1003D00007FA03F34FEA9A051A4346F825204E68B8
:1003E00040F20C45F202DEF8082054BF22EA08026F
:1003F00042EA0802C4F20105CEF808202A68B302D6
:1004000054BF22EA080242EA08022A60B303DEF877
:10041000042054BF22EA080242EA0802F303CEF89D
:100420000420DEF800204FF0010354BF22EA080246
:1004300042EA0802CEF800200E680AF1010A36FAF4
:100440000AF204F1040400F0998003FA0AFB16EAA8
:100450000B08F1D04E68664512DC122E56D8DFE844
:1004600006F0350B4D49555555555555555555556E
:1004700055555545510000BFD1F80C9046E000BFDE
:100480004FF6FF72C1F2210296420FDC0022C1F248
:10049000110296421AD00022C1F21202964215D0E1
:1004A0000022C1F22102964210D02FE00022C1F2B8
:1004B000220296420AD00022C1F23102964205D0B1
:1004C0000022C1F23202964220D100BF8A684AB1AE
:1004D000012A14BFC0F814B0C0F810B04FF00809DA
:1004E00014E000BF4FF0040910E000BFCA6802F139
:1004F00004090BE04FF0000908E000BFCA6802F1F0
:10050000080903E0CA6802F10C0900BF024626464A
:10051000B8F5807F24BF0432203E17680F25B54010
:1005200027EA050509FA06F635431560CA79D206A9
:100530007FF582AF41F21803C4F202031A68AEF5E8
:100540007E7642F001021A601A6802F001020192FE
:10055000019A2AF0030256F802B040F60002C4F2F3
:100560000102904208D040F60042C4F201029042DB
:100570007FF420AF012725E7002723E702B0BDE87D
:10058000F08F000040F2AC00C2F20000006870473B
:10059000002804BF01207047F0B581B0044690F8F0
:1005A0003D0028B9002084F83C00204600F040FCC3
:1005B000242084F83D002068016821F001010160D9
:1005C000016841F400410160016821F400410160CB
:1005D00000F0E6FD636848F2A16CC0F2010C40F641
:1005E0000011C0F23D0163453CBF48F28041C0F2BA
:1005F0001E01884202D2012001B0F0BD4DF6836198
:10060000C4F21B31A0FB01122168970CD1F804E061
:100610004FF496762EF03F0545EA92454D607743BC
:1006200048F638160D6AC0F24106A7FB067625F09B
:100630003F07634538BF960C721C3A430A62CA6989
:1006400048F2A0664CF6FF77C0F20106B34222EAF8
:1006500007020BD801385B00B0FBF3F001306FF3F9
:100660001F30042898BF04201BE000BFA768013892
:1006700057B119277B43B0FBF3F001306FF31F3004
:1006800070B100F5804007E003EB4303B0FBF3F0EB
:1006900001306FF31F3018B100F5004001E000BFDA
:1006A00001201043C8610868D4E9072320F0C00086
:1006B000104318430860886848F2FF3204F10C07C1
:1006C00090438CCF18431043A6698860C86820F017
:1006D000FF0038433043C860086840F001000860FC
:1006E00000202021206484F83D10206384F83E001F
:1006F00001B0F0BD2DE9F04784B0044600201F464C
:10070000164689460290FFF73DFF94F83D102029D8
:1007100024D10546206800BF816989071AD5FFF7F3
:1007200031FF411B20681A29F6D381698907F3D567
:1007300000202021206384F83D1084F83E00216CC5
:1007400041F02001216484F83C00022004B0BDE89F
:10075000F08700BF94F83C10012903D1022004B0B7
:10076000BDE8F087012184F83C100168C90703D176
:10077000016841F0010101600168DDF8308021F479
:1007800000610160222184F83D10102184F83E10A0
:100790000021216466626785618D0227C0F201072E
:1007A0002185A7F10211E162E16A026811F5803F3B
:1007B00042F48062026018BF01293DD1016841F412
:1007C0008071016020464FF00111002243460095E0
:1007D00001F064F950B120680068C00544BF4FF4CF
:1007E00000702064012004B0BDE8F0872069B0F5F6
:1007F000804F27D149F00100C0B22168424608610C
:10080000204639462B4601F02FFA0028EAD1208DE8
:10081000022861D0012849D0002840F073800020D0
:1008200003902068416903918169039103990168EC
:1008300041F40071016071E00829BFD0216B1129DA
:10084000BCD0BFE7062000EAD916206806F1F00107
:100850000161B91D204642462B4601F005FA0028E9
:10086000C0D120685FFA89F10161204639464246CD
:100870002B4601F0F9F90028B4D10020039020683C
:1008800000224169434603918169039103990168FC
:1008900041F48071016020464FF00111009501F094
:1008A000FDF8002897D146F0F100A6E7206801681E
:1008B00021F480610160EFF3108072B60020039094
:1008C000206841690391816903910399016841F4AA
:1008D0000071016062B621E02068016841F40061A6
:1008E0000160EFF3108072B6002003902068416928
:1008F0000391816903910399016821F4806101608A
:1009000062B60BE02068016841F48061016000215B
:10091000039141690391806903900398208D002819
:1009200000F0CC8040F20C094BF2895A0237C2F237
:100930000009C1F2F84A23260EE000BF10690870D2
:10094000606A218D01306062481E2085618D013909
:100950006185010400F0B28080B203280CD802281F
:100960002CD001284AD1204641462A4601F0E8F918
:10097000002800F09F8035E7204641462A4601F0D6
:10098000DFF900287FF42EAF2068616A00690870E3
:10099000606A2268411C208D616201382085638D68
:1009A000013B638553695B07D3D580B20328C5D16A
:1009B000106820F480601060C0E700BF2046394610
:1009C00000224346009501F069F800287FF40AAF41
:1009D000EFF3108072B62068616A026842F4007218
:1009E000026000690870606A218D01306062481EF3
:1009F0002085608D0138608562B65BE0204639460F
:100A000000224346009501F049F800287FF4EAAE41
:100A10002068016821F480610160EFF3108072B6F4
:100A20002068616A00690870606A218D01300139AF
:100A300060622185618D01396185D9F80010C9088E
:100A4000A1FB0A12110A7143029102990139029124
:100A5000029900293ED021684A6952071AD40299A6
:100A6000013902910299A9B321684A69520711D448
:100A7000029901390291029961B321684A695207CA
:100A800008D4029901390291029919B321684A697F
:100A90005207DAD50A6842F400720A6009690170E7
:100AA000606A218D01306062481E2085608D0138AA
:100AB000608562B62068616A006940E7202084F89A
:100AC0003D00002084F83E0084F83C0004B0BDE8FE
:100AD000F08700BF00202021206384F83D1084F8B7
:100AE0003E00216C41F02001216462B684F83C0094
:100AF000012004B0BDE8F0872DE9F04383B01E4625
:100B0000174689460446FFF73DFD94F83D1020291D
:100B100024D10546206800BF816989071AD5FFF7EF
:100B200031FD411B20681A29F6D381698907F3D565
:100B300000202021206384F83D1084F83E00216CC1
:100B400041F02001216484F83C00022003B0BDE89C
:100B5000F08300BF94F83C10012903D1022003B0B8
:100B6000BDE8F083012184F83C100168C90703D176
:100B7000016841F001010160016840F2020821F4BE
:100B800000610160212184F83D10102184F83E109D
:100B90000021216467626685618DC0F201082185AC
:100BA000A8F10211E162E16A0A9E11F5803F18BFC7
:100BB00001291DD1016841F48071016020464FF088
:100BC000011100223346009500F068FF50B1206803
:100BD0000068C00544BF4FF400702064012003B0DA
:100BE000BDE8F0832069B0F5804F07D1FE2015E005
:100BF0000829DFD0216B1229DCD0DFE7062000EACC
:100C0000D9102168F030086108F10601204632460B
:100C10002B4601F029F80028E0D1FF20216800EAE6
:100C2000090008612046414632462B4601F01CF877
:100C30000028D3D100200290206841690291806988
:100C40000290029806E000BF204631462A4600F096
:100C5000C7FE18BB208D68B3204631462A4601F0F6
:100C6000B7F8D8B9606A2168024612F8013B0B61F7
:100C70006262628D013A6285228D531E23854F691F
:100C80007F07E1D51B04DFD0437802300B6160623F
:100C9000608D01386085901E2085D5E7206C042882
:100CA0009CD12068016841F400710160012003B00B
:100CB000BDE8F0832068016841F4007101602020E4
:100CC00084F83D00002084F83E0084F83C0003B026
:100CD000BDE8F0832DE9F04383B0994616460F46F0
:100CE0000446FFF74FFC94F83D10202924D1054617
:100CF000206800BF816989071AD5FFF743FC411BB3
:100D000020681A29F6D381698907F3D500202021AC
:100D1000206384F83D1084F83E00216C41F02001EE
:100D2000216484F83C00022003B0BDE8F08300BFDA
:100D300094F83C10012903D1022003B0BDE8F083F0
:100D4000012284F83C200368DDE90B180A9ADB07CE
:100D500003D1036843F001030360036823F40063D5
:100D60000360212084F83D00402084F83E000020EC
:100D7000206462626185608D394620850020CFF64F
:100D8000FF70E062204632464B46CDE9008500F018
:100D9000C3FD18B1012003B0BDE8F083208D98B9E0
:100DA000204641462A4600F01BFE88B3206C0428EA
:100DB000F0D12068016841F400710160012003B0A6
:100DC000BDE8F0830004EBD0204641462A4600F0FF
:100DD000FFFF0028EAD1616A2268084610F8013B4B
:100DE0001361238D6062581E2085678D013F6785E2
:100DF00057697F07E6D50704E4D048781061881C5E
:100E00006062981E2085618D01396185DAE700BF37
:100E10002068016841F400710160202084F83D00E1
:100E2000002084F83E0084F83C0003B0BDE8F08365
:100E300010B586B0016845F60000C4F2000081429A
:100E40004FF00001CDE90411CDE9021102D006B046
:100E500010BD00BF41F21804C4F20204216800F57D
:100E6000344041F008012160216801F0080101913E
:100E700001994FF4406102911221039103210591E0
:100E800002A9FFF777FA606840F48000606060684C
:100E900000F480000190019806B010BD40F20400FB
:100EA00040F2AC01C2F20000C2F2000100780A6810
:100EB000104408607047000080B542F20000C4F2A0
:100EC0000200016841F010010160032000F07AF88F
:100ED0000F2000F005F800F027F8002080BD00008A
:100EE00070B540F20406C2F2000640F20C013278FE
:100EF000C2F200014FF47A730968B3FBF2F20446C0
:100F0000B1FBF2F1084600F073FB0F2C4FF0010526
:100F100008D838B94FF0FF3021460022002500F0F4
:100F200025F87460284670BD82B041F21800C4F202
:100F300002000168022241F001010160016801F034
:100F4000010101910199416841F08051416040687F
:100F500000F08050009000980420C4F20100016865
:100F600062F31A61016002B07047000010B54EF6DE
:100F70000C5CCEF2000CDCF80030C3F3022E8EF0D5
:100F80000704042C28BF0424BEF103034FF0FF3EE6
:100F90000EFA04F438BF0023A14399400EFA03F37C
:100FA0009A43114300F00F0200F160430901043A33
:100FB00003F564436244002848BF02F10C03197032
:100FC00010BD00004EF60C51CEF200010A684FF63B
:100FD000FF031A4060F30A2242F0806040F0FD7087
:100FE00008607047002804BF012070472DE9F043D6
:100FF00081B042F20008C4F202080446D8F80000AA
:101000000D4600F0070088420CD2D8F8000020F00E
:1010100007002843C8F80000D8F8000000F00700D7
:10102000A8426CD1206841F204098107C4F2020988
:1010300017D5410705D5D9F8001041F4E061C9F88A
:101040000010010705D5D9F8001041F46051C9F826
:101050000010D9F80010A26821F0F0011143C9F87E
:101060000010C00742D1D8F8000000F00700A842E5
:101070000CD9D8F8000020F007002843C8F8000079
:10108000D8F8000000F00700A84238D120684107D6
:1010900007D5D9F80010E26821F4E0611143C9F8DE
:1010A0000010000708D5D9F80000216920F460502D
:1010B00040EAC100C9F80000D9F8002002F00C0095
:1010C000082841F20020C0F27A004DD142F2663386
:1010D000C2F38341C0F60003595CD20338D440F612
:1010E0000010C0F23D0048433EE000BF606859F880
:1010F000041C022808D0012826D1890306D4012027
:1011000001B0BDE8F08300BF8901F8D5D9F800101F
:1011100021F003010843C9F80000FFF733FA06463F
:1011200041F28837D9F80000616800F00C00B0EB9C
:10113000810F98D0FFF726FA801BB842F2D903201E
:1011400001B0BDE8F08300BF8907D8D5DEE700BF56
:10115000D9F8002042F26433C2F34042C0F60003E3
:101160009A5C4843B0FBF2F0D9F8001042F24C32DE
:10117000C1F30311C0F60002515C40F20C0220FAE8
:1011800001F140F20800C2F200000068C2F2000261
:101190001160FFF7A5FE002001B0BDE8F08300005C
:1011A00040F20C0041F20401C2F20000C4F202015C
:1011B0000068096842F25C32C1F30221C0F6000205
:1011C000515CC8407047000040F20C0041F204013D
:1011D000C2F20000C4F202010068096842F25C3207
:1011E000C1F3C221C0F60002515CC8407047000044
:1011F000002804BF012070472DE9F04182B0044669
:10120000007841F20006C007C4F202060CD07068F4
:1012100000F00C00042840F081803068800303D582
:101220006068002800F04681207880071BD5706830
:1012300010F00C0F09D0706800F00C00082840F086
:1012400087807068C00300F183803068800703D511
:101250002069012840F02E813068616920F0F80093
:1012600040EAC10030602078000713D4207840079E
:101270002CD4E569002D00F01881706800F00C0096
:10128000082840F0A780012D40F00481012002B021
:10129000BDE8F081A069002800F084800020C4F23D
:1012A00042200121C0F88014FFF76CF9054600BF09
:1012B000706A800700F1B280FFF764F9401B0228D2
:1012C000F6D9032002B0BDE8F08100BFF0695FEA03
:1012D000C00808D4F06940F08050F061F06900F077
:1012E00080500090009847F20007C4F20007386869
:1012F000C00549D4386840F480703860FFF742F97F
:10130000054600BF3868C0053ED4FFF73BF9401BD7
:101310006428F7D9032002B0BDE8F081706800F0BE
:101320000C00082803D17068C0033FF576AF6168F0
:101330003068002900F00C81B1F5A02F00F0008189
:10134000B1F5803F40F01A8140F480301CE100BFCD
:101350002069002840F20000C4F2422000F088809A
:1013600001210160FFF70EF9054600BF30688007D4
:101370003FF572AFFFF706F9401B0228F6D90320AC
:1013800002B0BDE8F08100BFE168306A002900F0DA
:101390009D80052900F09280012940F0AF8040F047
:1013A0000100B1E00020C4F242200021C0F8801406
:1013B000FFF7E8F8054600BF706A80077FF556AF73
:1013C000FFF7E0F8401B0228F6D9032002B0BDE881
:1013D000F08100BF0027C4F2422700203866FFF7E3
:1013E000D1F8022D05460DD13068800140F1DE8034
:1013F000FFF7C8F8401B02284FF00300F4D902B0F1
:10140000BDE8F081306880014FD5FFF7BBF8401B85
:1014100002284FF00300F5D9F1E700BF40F20C00BD
:10142000C2F20000006844F6D351C1F26201A0FB91
:101430000101480A019000BF00BF0198411E002829
:1014400001913FF413AF00BF0198411E00280191A4
:101450003FF40CAF00BF0198411E002801913FF4FA
:1014600005AF00BF0198411E00280191E4D1FDE6BF
:1014700000210160FFF786F8054600BF306880074D
:101480007FF5F1AEFFF77EF8401B02284FF0030016
:10149000F4D9B4E77068216A00F480328A4209D135
:1014A000616A00F47010884204D1002002B0BDE8E7
:1014B000F08100BF012002B0BDE8F08140F00400DF
:1014C0003062306A40F001001EE000BF20F00100F1
:1014D0003062306A20F004003062FFF753F80546AE
:1014E00041F28837306A800720D5FFF74BF8401B60
:1014F000B8424FF00300F5D981E700BF20F00100AA
:101500003062306A20F004003062FFF73BF8054695
:1015100041F28837306A800708D4FFF733F8401B60
:10152000B842F7D9032002B0BDE8F081B8F1000F4E
:101530003FF59FAEF06920F08050F06199E600BF62
:1015400040F480203060306840F480301CE000BF00
:1015500020F480303060306820F480203060FFF765
:1015600011F80546306880037FF55EAEFFF70AF894
:10157000401B64284FF00300F4D940E720F480308A
:101580003060306820F480203060FEF7FBFF0546B5
:10159000306880033FF548AEFEF7F4FF401B642837
:1015A000F6D9032002B0BDE8F08100BF206AB0F593
:1015B000803F05D17168A26821F400311143716048
:1015C0007168626A21F4741111430843706001204C
:1015D0003866FEF7D7FF0446306880013FF565AFF7
:1015E000FEF7D0FF001B02284FF00300F4D906E7F6
:1015F000411E0020B0EB116F1CBF012070474EF25E
:101600001002CEF2000251604EF62351CEF20001DC
:10161000F0230B700721906011607047002804BF11
:101620000120704710B5044690F8410028B9002009
:1016300084F84000204600F063F8242084F841003C
:101640002068D4E90212C36823F40053C36003691D
:1016500023F440531A430261D4E904231143C268BE
:10166000194341F20C639A431143C1604169A26975
:1016700021F44071114343F60002C4F2010290428A
:10168000416103D0FFF78CFD02E000BFFFF79CFD36
:10169000D4E90023192148439900B0FBF1F048F246
:1016A0001F5CC5F2EB1CA0FB0C314FF69C73490983
:1016B000C0F6FF7301FB0300322303EB0010A0FB15
:1016C0000C03F02000EA531000EB0110C3F34311A8
:1016D000084490601069202120F490401061506906
:1016E00020F02A005061D06840F40050D060002003
:1016F000606484F8411084F84210606310BD0000FB
:1017000070B586B040F60004C4F20104006804F528
:101710004051002688420596CDE90366029601D025
:1017200006B070BD41F21800C4F20200016802ADBB
:1017300041F480410160016801F480410191019907
:10174000016841F0040101600068294600F00400CE
:10175000019001984FF40070029002200390032042
:1017600005902046FEF706FE4FF48060CDE90206A4
:10177000204629460496FEF7FDFD06B070BD000028
:101780002DE9F04381B0044690F84100202809D1AA
:1017900000294FF0010018BF002A07D101B0BDE8B1
:1017A000F08300BF022001B0BDE8F0830020606438
:1017B00021201D460E4684F841001746FEF7E2FE42
:1017C000A784E784A1688146B1F5805F02D12069D2
:1017D00000285DD037460020E28C2168002A5DD0C9
:1017E0006A1C24D0002D4AD0804600BF086800063D
:1017F00008D4FEF7C7FEA0EB0900A8427AD82168FA
:10180000C868F3E717B117F8010B04E038F8020BCA
:1018100000276FF35F204860E08C0138E084E08CA3
:101820000028E3D13AE000BF0A68120609D40A682A
:10183000120606D40A6812065CBF0A685FEA0262F2
:10184000F2D51FB117F8012B05E000BF30F8022BCD
:1018500000276FF35F224A60E28C013AE284E28C57
:10186000002AE4D11AE000BF30F8022B00276FF302
:101870005F224A60E28C013AE284E28C72B10A682B
:10188000120635D5002FEFD017F8012BF1E700BF76
:1018900000273046E28C2168002AA1D10868400662
:1018A0001ED42DB3681C14D1086840062AD40868D9
:1018B000400627D40868400624D4086840064FF044
:1018C0000000F1D50DE000BF2068C1680068400647
:1018D00018D4FEF757FEA0EB0900A842F4D909E09E
:1018E0000020202184F8411001B0BDE8F08300BF42
:1018F000FEF748FE0320202184F8411001B0BDE826
:10190000F08300BF0020202184F8411001B0BDE821
:10191000F0830000FEE700002DE9F04383B00446A9
:1019200000680F4601680A9D0B9E41F4807199463C
:101930009046016020464FF0011100222B46009690
:1019400000F0ACF850B120680068C00544BF4FF407
:1019500000702064032003B0BDE8F083206807F026
:10196000FE0101610221C0F2010120462A463346F0
:1019700000F07AF920B1012003B0BDE8F08300BF88
:101980000020029020683246416902918069294610
:1019900002900298204600F01BFA58B1206C0428EF
:1019A000E9D12068016841F400710160012003B0B1
:1019B000BDE8F0832068B9F1010F0AD04FEA182181
:1019C000016120462946324600F002FA0028E5D19E
:1019D00020685FFA88F10161002003B0BDE8F08360
:1019E00070B50368044653F8140F400711D40E462F
:1019F000481C29D086BB00BF1868400527D4FEF7D5
:101A0000C1FD236853F8140F400737D51868400705
:101A1000F2D5002070BD00BF18684007F9D41868DF
:101A2000400514D418684007F3D4186840050ED454
:101A300018684007EDD41868400508D418684007B6
:101A40004FF0000048BF70BD18684005E4D56FF442
:101A500080601860042012E0154603E053F8140F6C
:101A60004007D6D418684005F1D4FEF78BFD401B23
:101A70002368B042F2D958694007EFD420200021F2
:101A80002022216384F83D2084F83E10226C10430C
:101A90002064012084F83C1070BD00002DE9F04165
:101AA000054600681E46144601F47F0201338FB2DA
:101AB00042D0DDF81880B2F5803F40F08780406961
:101AC0003840C01BB0FA80F04009A04240F0C88006
:101AD0004EB924E040693840C01BB0FA80F040099C
:101AE000A04240F0BD80FEF74DFDA0EB0801286844
:101AF000B142EFD941693940C91BB1FA81F14909B5
:101B0000A142E7D19BE000BF40693840C01BB0FA5A
:101B100080F04009A0424FF0000040F0A280FEF7A4
:101B200031FD286841693940C91BB1FA81F1490981
:101B3000A142E9D183E000BFB2F5803F24D100BFCC
:101B400041693940C91BB1FA81F14909A14240F00C
:101B5000878041693940C91BB1FA81F14909A14225
:101B600040F07E8041693940C91BB1FA81F14909D1
:101B7000A14275D141693940C91BB1FA81F14909C6
:101B8000A142DDD06CE000BF81693940C91BB1FAC8
:101B900081F14909A14263D181693940C91BB1FA78
:101BA00081F14909A1425BD181693940C91BB1FA70
:101BB00081F14909A14253D181693940C91BB1FA68
:101BC00081F14909A142DFD04AE000BF8069384075
:101BD000C01BB0FA80F04009A04241D146B923E0D1
:101BE00080693840C01BB0FA80F04009A04237D16C
:101BF000FEF7C8FCA0EB08012868B142F0D9816962
:101C00003940C91BB1FA81F14909A142E8D116E076
:101C100080693840C01BB0FA80F04009A0424FF004
:101C2000000018BFBDE8F081FEF7ACFC28688169B0
:101C30003940C91BB1FA81F14909A142E8D100201C
:101C40002021286385F83D1085F83E00296C41F07D
:101C50002001296485F83C000120BDE8F08100BF27
:101C60000020BDE8F0810000F0B581B004460068B6
:101C70001D4643698FB203EA0701B94202D1002031
:101C800001B0F0BD4169164601323CD0490512D47D
:101C90007EB300BFFEF776FC411B2068B14203D93A
:101CA00041693940B9422BD141693940B942E6D046
:101CB00041694905EED5016841F4007101606FF496
:101CC00080614161042000212022216384F83D20AD
:101CD00084F83E10226C1043206484F83C100120EC
:101CE00001B0F0BD41693940B942C8D041694905E8
:101CF000E1D4FEF747FC206841693940B942F1D090
:101D00002020E0E741694905D5D441693940B9420D
:101D1000B5D041694905CED441693940B942AED008
:101D200041694905C7D441693940B942A7D04169E1
:101D30004905C0D441693940B942E3D19FE7000069
:101D400070B504460068154650F8143F5A063DD455
:101D50000E4629B926E000BF50F8141F490635D4B5
:101D60000168C90621D4FEF70DFC411B2068B14271
:101D7000F2D941694906EFD400202021206384F87C
:101D80003D1084F83E00206C40F0200018E000BFB9
:101D9000FEF7F8FB206850F8141F4906ECD50168DF
:101DA000490613D40168C906F2D56FF0100101602D
:101DB00000202021206384F83D1084F83E00206C30
:101DC0002064002084F83C00012070BD002070BD1C
:101DD00070B50368044653F8140F000611D40E467C
:101DE000481C29D086BB00BF1868400527D4FEF7E1
:101DF000C9FB236853F8140F000637D5186800068E
:101E0000F2D5002070BD00BF18680006F9D418682C
:101E1000400514D418680006F3D4186840050ED4A1
:101E200018680006EDD41868400508D41868000644
:101E30004FF0000048BF70BD18684005E4D56FF44E
:101E400080601860042012E0154603E053F8140F78
:101E50000006D6D418684005F1D4FEF793FB401B6A
:101E60002368B042F2D958690006EFD4202000213F
:101E70002022216384F83D2084F83E10226C104318
:101E80002064012084F83C1070BD00002DE9F04171
:101E900084B00021C4F28C210546FEF775F90028B4
:101EA0004FF0000451D10021C4F2D8212846FEF79A
:101EB00079F9002849D10021C4F2A0112846FEF783
:101EC00031F9FEF77DF90646400840F210058DF81D
:101ED0000C0003A8C2F200054FF0FF3701248DE883
:101EE000910028467C21002201234FF00008FEF7D4
:101EF000F1FEC02040EA56208DF80D000DF10D00D6
:101F0000CDE9000428467C21012201230297FEF737
:101F1000E1FEF00140308DF80E000DF10E00CDE92C
:101F2000000428467C21022201230297FEF7D2FEFC
:101F30000DF10F00009028467C210B2201238DF823
:101F40000F8002970194FEF7C5FE204604B0BDE85D
:101F5000F081000083B041F21800C4F20200016871
:101F600041F020010160016801F020010291029915
:101F7000016841F008010160016801F00801019168
:101F80000199016841F004010160006800F004005B
:101F90000090009803B0704780B540F2100045F6FD
:101FA0000001C2F20000C4F2000148F2A062002366
:101FB0004FF4804CC0F2010280E80E00C0E9033CFF
:101FC000C0E90533C0E90733FEF7E2FA002808BF8D
:101FD00080BDBDE88040FEF7C7B9000080B540F283
:101FE000640043F60001C2F20000C4F201010023C4
:101FF0004FF00C0C4FF4E13280E80E00C0E90333DF
:10200000C0E905C3C361FFF709FB002808BF80BD15
:10201000BDE88040FEF7A8B9FEE70000FEE700003B
:102020007047000070470000FEF738BF704700009F
:10203000FEE7000080B582B0019040F26400C2F279
:10204000000001A901224FF0FF33FFF799FB01982F
:1020500002B080BD90B0FEF72FFF00240120CDE933
:102060000B44CDE9094406900A904FF4E0104FF478
:10207000803102250F9006A8CDE90714CDE90D5156
:10208000FFF7B6F820B1EFF3108072B6FEE700BF9D
:102090000F20CDE901054FF48060CDE9040401A8CB
:1020A00002210394FEF79EFF20B1EFF3108072B679
:1020B000FEE700BFFFF74EFFFFF76EFFFFF78EFF53
:1020C00015A000F031F9FEF7C3F838B114A000F004
:1020D0002BF9EFF3108072B6FEE700BF18A000F0F6
:1020E00023F900200024FEF71FF93F20FEF704F932
:1020F000FEF7ECF806A88DF81840FEF7BFF89DF83B
:10210000181018A000F046F80020C4F2BA20FFF71B
:10211000BDFE00BFFEE700BF737461727400000073
:102120004661696C656420746F20696E69746961C9
:102130006C697A6520414435313178210000000016
:1021400041443531317820696E697469616C697A0E
:102150006174696F6E207375636365737366756C04
:102160002100000057697065722076616C756520EA
:10217000256420736176656420746F204545505254
:102180004F4D207375636365737366756C6C792E40
:102190000A0000000FB4054B10B503A9044A0298C9
:1021A00000F018F810BC5DF814FB000035200008A2
:1021B0000000002002E008C8121F08C1002AFAD15E
:1021C00070477047002001E001C1121F002AFBD1B7
:1021D000704700002DE9FF4F89B09B46044600255B
:1021E00006E025280BD05A460B999047641C6D1CBD
:1021F00020780028F5D10DB02846BDE8F08F0027E3
:10220000B8460122474900E0074314F8013F203B4C
:1022100002FA03F00842F7D120782E2819D114F8D9
:10222000010F47F004072A280ED06FF02F02207804
:10223000A0F1300109290CD808EB880102EB41011B
:1022400000EB0108641CF2E70A98641C50F8048B48
:102250000A9020780028CED0642808D0692806D0BB
:1022600075281ED05A460B9990476D1C58E00A9964
:102270004FF00A0901C90A91002802DA40422D21D3
:1022800002E0390504D52B218DF82010012103E04F
:10229000F90704D02021F7E78A4608AE0DE00021B7
:1022A000FAE70A994FF00A0901C90A91F7E7494686
:1022B000FDF79FFF303106F8011D0028F7D1ADEB87
:1022C000060000F12009780701D44FF00108C84545
:1022D00002DDA8EB090000E000208046002706E0B0
:1022E00008A85A46C05D0B9990476D1C7F1C574546
:1022F000F6DB04E030205A460B9990476D1CB8F18C
:102300000001A8F10108F5DC05E016F8010B5A46BA
:102310000B9990476D1CB9F10001A9F10109F4DC9A
:10232000641C65E70928010010B5044601E0FFF7C9
:1023300081FE14F8010B04490028F8D1BDE81040D3
:102340000A20FFF777BE0000000000200000000018
:102350000000000001020304060708090000000055
:1023600001020304010202030405060708090A0B1F
:102370000C0D0E0F10100000982300080000002024
:1023800010000000B4210008A8230008100000205D
:10239000A0040000C42100080000000001000000AB
:0823A0001000000000127A0099
:04000005080000ED02
:00000001FF
